S013000041737369676E6D656E74392E73726563BF
S11300000C942A000C943C000C943C000C943C008E
S11300100C943C000C943C000C943C000C943C006C
S11300200C943C000C943C000C943C000C94570041
S11300300C943C000C943C000C943C000C943C004C
S11300400C943C000C943C000C943C000C943C003C
S11300500C943C0011241FBECFE5D4E0DEBFCDBF1D
S113006020E0A0E6B0E001C01D92A236B207E1F79D
S11300700E9469000C947C000C940000899A889872
S1130080089520B52F7720BD90BD89B98BB18C7FA1
S11300908BB98AB188618AB980B5866880BD0895B4
S11300A05D9BFECF8CB908957894579A08951F925A
S11300B00F920FB60F9211248F938CB1809360002E
S11300C081E0809361008F910F900FBE0F901F907D
S11300D018950E943E0087E090E00E9441000E9433
S11300E05400809161008130E1F7809160000E94AA
S10F00F0500010926100F5CFF894FFCF8F
S9030000FC
