:100000000C942A000C943C000C943C000C943C0092
:100010000C943C000C943C000C943C000C943C0070
:100020000C943C000C943C000C943C000C943C0060
:100030000C943C000C943C000C943C000C943C0050
:100040000C943C000C943C000C943C000C943C0040
:100050000C943C0011241FBECFE5D4E0DEBFCDBF21
:1000600020E0A0E6B0E001C01D92A236B207E1F7A1
:100070000E945C000C946C000C940000B89A8E985E
:10008000C0980895C09A0895C0980895809160001E
:1000900090916100892B39F00E9444001092610018
:1000A0001092600008950E94420081E090E09093D9
:1000B00061008093600008950E943E008699FECF03
:1000C00086E69EE00197F1F700008699F7CF869BC0
:0C00D000FECF0E944600F2CFF894FFCF54
:00000001FF
