S013000041737369676E6D656E74312E73726563C7
S11300000C942A000C9447000C9447000C9447006D
S11300100C9447000C9447000C945D000C9447002A
S11300200C9447000C9447000C9447000C94470030
S11300300C9447000C9447000C9447000C94470020
S11300400C9447000C9447000C9447000C94470010
S11300500C94470011241FBECFE5D4E0DEBFCDBF12
S113006010E0A0E6B0E0ECE6F1E002C005900D92ED
S1130070AA36B107D9F720E0AAE6B0E001C01D9284
S1130080AD36B207E1F70E946C000C94B4000C94F6
S1130090000080E78BBD80E88ABD8EB58C608EBD84
S11300A08FB58C7F8FBD08958FE78ABB1BBA0895E7
S11300B0789489B7806189BF08951F920F920FB613
S11300C00F9211248F9381E080936C008F910F9095
S11300D00FBE0F901F9018950E9454000E94490073
S11300E00E9458002AE030E080916C008130E1F7F2
S11300F080916A0090916B000196B9010E948C0076
S113010090936B0080936A00FC01E05AFF4F80815A
S11301108BBB10926C00E8CF97FB072E16F400946B
S113012007D077FD09D00E94A00007FC05D03EF45B
S1130130909581959F4F0895709561957F4F08958F
S1130140AA1BBB1B51E107C0AA1FBB1FA617B707F9
S113015010F0A61BB70B881F991F5A95A9F7809515
S10F01609095BC01CD010895F894FFCFE8
S10D016CC0F9A4B0999282F88090C3
S9030000FC
