:100000000C942A000C9434000C9434000C943400AA
:100010000C9434000C9434000C9434000C94340090
:100020000C9434000C9434000C9434000C94340080
:100030000C9434000C9434000C9434000C94340070
:100040000C9434000C9434000C9434000C94340060
:100050000C94340011241FBECFE5D4E0DEBFCDBF29
:100060000E944C000C945F000C940000899A8898C0
:10007000089520B52F7720BD90BD89B98BB18C7FB5
:100080008BB98AB188618AB980B5866880BD0895C8
:100090005D9BFECF8CB908950E9436008FE590E0FD
:1000A0000E94390081E60E9448002FEF8FEF9CE20A
:1000B000215080409040E1F700C00000F3CFF89459
:0200C000FFCF70
:00000001FF
