:100000000C942A000C9434000C9434000C943400AA
:100010000C9434000C9434000C9434000C94340090
:100020000C9434000C9434000C9434000C94340080
:100030000C9434000C9434000C9434000C94340070
:100040000C9434000C9434000C9434000C94340060
:100050000C94340011241FBECFE5D4E0DEBFCDBF29
:100060000E9452000C945B000C940000899A8898BE
:10007000089520B52F7720BD90BD89B98BB18C7FB5
:100080008BB98AB188618AB980B5866880BD0895C8
:100090005D9BFECF8CB908955F9BFECF8CB10E9413
:1000A000480008950E94360087E090E00E943900E1
:0A00B0000E944C00FDCFF894FFCF32
:00000001FF
