S013000041737369676E6D656E74322E73726563C6
S11300000C942A000C9434000C9434000C943400A6
S11300100C9434000C9434000C9434000C9434008C
S11300200C9434000C9434000C9434000C9434007C
S11300300C9434000C9434000C9434000C9434006C
S11300400C9434000C9434000C9434000C9434005C
S11300500C94340011241FBECFE5D4E0DEBFCDBF25
S11300600E943D000C9456000C940000B89AC0986D
S11300700895C09A0895C09808950E9436000E9479
S113008039002FEF8FEF9CE2215080409040E1F740
S113009000C000000E943B002FEF8FEF9CE2215034
S11300A080409040E1F700C00000E9CFF894FFCF12
S9030000FC
