:100000000C942A000C943C000C943C000C943C0092
:100010000C943C000C943C000C944B000C943C0061
:100020000C943C000C943C000C943C000C943C0060
:100030000C943C000C943C000C943C000C943C0050
:100040000C943C000C943C000C943C000C943C0040
:100050000C943C0011241FBECFE5D4E0DEBFCDBF21
:1000600020E0A0E6B0E001C01D92A236B207E1F7A1
:100070000E945F000C947D000C940000B89AC09818
:10008000089598B381E0892788BB0895789489B74B
:10009000806189BF08951F920F920FB60F921124AD
:1000A0008F939F9381E090E0909361008093600034
:1000B0009F918F910F900FBE0F901F9018950E94E7
:1000C0003E000E9472000E94460080916000909164
:1000D00061000197D1F70E944100109261001092D7
:1000E0006000F3CF80E78BBD80E88ABD8EB58C6061
:0E00F0008EBD8FB58C7F8FBD0895F894FFCF25
:00000001FF
