S013000041737369676E6D656E74332E73726563C5
S11300000C942A000C9434000C9434000C943400A6
S11300100C9434000C9434000C9434000C9434008C
S11300200C9434000C9434000C9434000C9434007C
S11300300C9434000C9434000C9434000C9434006C
S11300400C9434000C9434000C9434000C9434005C
S11300500C94340011241FBECFE5D4E0DEBFCDBF25
S11300600E9458000C946F000C94000087B38FEF2B
S113007087BB81B38F7981BB81E088BB08958111EF
S113008014C088B3813049F480E888BB089588B3EC
S1130090803839F481E088BB089588B3869588BB9D
S11300A0089588B3880F88BB08958130D1F7EFCFC6
S11300B00E94360086E69EE00197F1F700008599DC
S11300C006C0859BFECF80E00E943F00F3CF869957
S11300D0F1CF869BFECF81E00E943F00EBCFF894E6
S10500E0FFCF4C
S9030000FC
