S013000041737369676E6D656E74322E73726563C6
S11300000C942A000C9434000C9434000C943400A6
S11300100C9434000C9434000C9443000C9434007D
S11300200C9434000C9434000C9434000C9434007C
S11300300C9434000C9434000C9434000C9434006C
S11300400C9434000C9434000C9434000C9434005C
S11300500C94340011241FBECFE5D4E0DEBFCDBF25
S11300600E9467000C9479000C940000B89AC09820
S1130070089598B381E0892788BB0895789489B757
S1130080806189BF08951F920F920FB60F921124B9
S11300902F933F934F935F936F937F938F939F938C
S11300A0AF93BF93EF93FF930E943900FF91EF91B9
S11300B0BF91AF919F918F917F916F915F914F917C
S11300C03F912F910F900FBE0F901F9018950E9493
S11300D036000E946E000E943E00FFCF80E78BBD79
S11300E080E88ABD8EB58C608EBD8FB58C7F8FBD48
S10900F00895F894FFCF0F
S9030000FC
